:020000040800F2
:10000000A0070020612800088D0400088F04000864
:1000100093040008970400089B04000800000000F7
:100020000000000000000000000000009F04000825
:10003000A104000800000000A3040008A5040008B3
:100040007B2800087B2800087B2800087B28000804
:100050007B2800087B2800087B2800087B280008F4
:100060007B2800087B2800087B2800087B280008E4
:100070007B2800087B2800087B2800087B280008D4
:100080007B2800087B2800087B2800087B280008C4
:100090007B2800087B2800087B2800087B280008B4
:1000A0007B2800087B2800087B2800087B280008A4
:1000B0007B2800087B2800087B0900087B280008B3
:1000C0007B2800087B2800087B2800087B28000884
:1000D0007B2800083F0700087B2800087B280008D1
:1000E000272500087B2800087B2800087B280008BB
:1000F0007B2800087B2800087B2800087B28000854
:100100007B2800087B2800087B2800087B28000843
:100110007B2800087B2800087B2800087B28000833
:100120007B2800087B2800087B2800087B28000823
:1001300000F002F800F047F80AA090E8000C8244B2
:100140008344AAF10107DA4501D100F03CF8AFF28F
:10015000090EBAE80F0013F0010F18BFFB1A43F0A5
:1001600001031847885C0000A85C0000103A24BF17
:1001700078C878C1FAD8520724BF30C830C144BF0C
:1001800004680C607047000000230024002500264E
:10019000103A28BF78C1FBD8520728BF30C148BFEA
:1001A0000B607047662905F0D585002070471FB5A4
:1001B00004F06AFB04000020002105F0BBF8E060B9
:1001C0001FBD10B510BD04F077FC1146FFF7EFFF1F
:1001D00000F008F804F095FC03B4FFF7F2FF03BC4D
:1001E00000F052FA0024A14600250026002700BF97
:1001F000A04602F0CBFA4FF4A06002F051FB4FF49E
:10020000165000F050FA02F021F902F049F94721A6
:1002100044F61F6000F0D8FA41F61F4141F28830E1
:1002200000F07EFB01F03DFD4FF47A7002F0EBFA36
:100230009248006820F40040904908601CE1C9E041
:1002400000F0ACFBB9F1000F05D100F0A7FB00F006
:10025000A5FB09F101091DE089480068012806D1C4
:100260008748001D006810B901F068F801E001F04E
:100270002AF909E000F01CFD00F01AFD01F023F955
:1002800001F021F901F01FF97E4800680028F1D043
:1002900000F084FB7A4800680028DDD07848001D13
:1002A00000680028D8D07648006820B9754808381A
:1002B000006801280CD17348001D006840B901F0A6
:1002C0005CFB6F48001D0068012801D101F055FB5F
:1002D0003AE06A48006840F400406849086002F06B
:1002E00023FA6848006801282DD16448006820F48A
:1002F00000406249086000F05DFF4FF47A7002F040
:1003000082FA61480068401C5F49086001F0F3FC14
:1003100001F0C7FC4FF47A7002F075FA00F099FD15
:100320004FF47A7002F06FFA4FF4FA7002F06BFA41
:1003300055480068401E544908605248006801282A
:1003400001D100F02BFB641C4E48083800680128DE
:100350000DD14B480068012809D149481030006888
:10036000012804D14748001D00680128B1D0454844
:1003700008380068A0B94248006888B94048103081
:10038000006868B93F48001D006848B93C48001D36
:10039000006828B924B100F001FB01F0BDFB641C2A
:1003A0004FF0000809E001F0E8FA3548006801283C
:1003B00001D101F01BFA08F101083148001D006865
:1003C000012807D12F48001D006818B914B1B8F1F1
:1003D0000A0FE8DB002C3FF433AF00F0DFFA2848C7
:1003E0000C30006870B900F063FC00F061FC00F0B4
:1003F0005FFC00F05DFC00F05BFC7F1C01F0A2FDE7
:1004000001F08AFB1E4810300068012804D01D4806
:10041000001D006801282FD1642002F0F4F918486B
:1004200010300068012804D01648001D006801281B
:1004300022D11FE07F1C142E02DA304601F053FF58
:10044000284601F005FE0F480838006890B90C48AE
:10045000006878B90A481030006858B90948001D8A
:10046000006838B906480C300068012802D10DB187
:10047000002600E0DEE700BFE1E6000000040140E6
:10048000108121423001214200000020704700BF4E
:10049000FEE700BFFEE700BFFEE700BFFEE77047D4
:1004A00070477047704700000CB500200190009025
:1004B0006C48006840F480306A49086000BF6948B1
:1004C000006800F4003000900198401C01900098F2
:1004D00018B90198B0F5A06FF1D16248006800F436
:1004E000003010B10120009001E000200090009841
:1004F000012843D15C48006840F010005A49086068
:100500000846006820F0030008600846006840F0D4
:1005100002000860534840685249486008464068F5
:1005200048600846406840F480604860084640687B
:1005300020F47C1048600846406840F4E8104860A9
:100540000846006840F08070086000BF45480068B9
:1005500000F000700028F9D04248406820F0030005
:10056000404948600846406840F00200486000BFCB
:100570003C48406800F00C000828F9D10CBD10B5CB
:10058000FFF792FF10BD10B53648006840F001003B
:100590003449086008464068344908403149486099
:1005A00008460068324908402E490860084600683D
:1005B00020F4802008600846406820F4FE0048606F
:1005C0004FF41F008860FFF7DAFF4FF00060294901
:1005D000086010BD10B5002100200022214B5B688F
:1005E00003F00C0121B1042906D0082928D107E025
:1005F000214B224C236027E01F4B204C236023E03B
:10060000184B5B6803F47010164B5B6803F4803280
:10061000022303EB904022B9194B4343174C23604C
:100620000DE0104B5B6803F4003323B1144B4343DC
:10063000124C236003E0104B4343104C236003E053
:100640000D4B0E4C236000BF00BF064B5B68C3F32D
:1006500003130C4CE15C094B1B68CB40074C236037
:1006600010BD000000100240002002400000FFF812
:10067000FFFFF6FE08ED00E000127A0008000020FF
:1006800000093D000C000020014600BF704700BF7C
:10069000494A128802F04002002AF9D0C2B2464B01
:1006A0001B1D1A80704710B586B00446012144F224
:1006B000040002F07FFC4FF40070ADF8140003203A
:1006C0008DF8160018208DF8170005A93B4802F098
:1006D000B5F94FF48060ADF8140004208DF81700D0
:1006E00005A9364802F0AAF925208DF8000003205C
:1006F0008DF801008DF8020001208DF80300684696
:1007000002F0D3F801940020ADF80800ADF80A001B
:10071000ADF80C00ADF810000C20ADF80E0001A9EA
:10072000254803F0FCFB012240F22551224803F04A
:100730008EFC0121204803F07EFC06B010BD10B5F0
:1007400040F225511C4803F067FD10B31A4803F02E
:10075000E3FCC4B21A48008800F40040C8B9184845
:10076000008800F4804060B10A2C03D000201449B6
:10077000088020E01248008840F4004010490880BA
:1007800019E00D2C06D10E48008840F480400C4939
:10079000088010E00A480088C0F30D0009490C5495
:1007A00007480088401C0649088008460088C7287A
:1007B00001DD0020088010BD003801400008014024
:1007C000200000207400002030B58FB005460C4694
:1007D0000121084602F0FBFB0121022002F0F7FB99
:1007E0000121042002F0E6FBCF20ADF838001820EC
:1007F0008DF83B0003208DF83A000EA9644802F002
:100800001DF9ADF83050ADF82C400020ADF83200A5
:10081000ADF82E000BA94FF0804002F003FDADF8BB
:100820002450ADF820400020ADF82600ADF822009D
:1008300008A9584802F0F6FC6020ADF8100001202D
:10084000ADF812000020ADF8180004A94FF0804068
:1008500002F025FD0821C80603F070F96020ADF80C
:1008600010000120ADF812000020ADF8180004A916
:100870004FF0804002F055FD0821C80603F067F9EB
:100880006020ADF810000120ADF812000020ADF896
:10089000180004A94FF0804002F090FD0821C8061E
:1008A00003F062F96020ADF810000120ADF81200ED
:1008B0000020ADF8180004A94FF0804002F0C9FDF7
:1008C0000821C80603F059F96020ADF800000120A6
:1008D000ADF802000020ADF8080069462D4802F08E
:1008E000DEFC08212B4803F029F96020ADF8000058
:1008F0000120ADF802000020ADF808006946254847
:1009000002F00FFD0821234803F021F90121880797
:1009100002F0E4FF01211F4802F0E0FF0FB030BDFC
:100920007FB504460D460121042002F050FB41F240
:100930008830ADF8080041F61F40ADF804000020F3
:10094000ADF80A00ADF8060001A9134802F06AFCF0
:1009500001224121104802F0DCFF1E208DF800002A
:1009600000208DF8010003208DF8020001208DF891
:100970000300684601F099FF7FBD10B501210648CC
:1009800003F075FA18B10121034803F081FA10BD94
:1009900000080140000400400008004010B501F0CC
:1009A000F5FE1AE0FE48008881B2FE4803F02EFAF8
:1009B000FD49098888B201F026FFF948008881B214
:1009C000F84803F025FAF849098888B201F01BFFBE
:1009D000F3480068C01EF2490860F148006840F220
:1009E00046518842DEDC642001F00DFF34E0EF4820
:1009F000008881B24FF0804003F00AFAEA49098882
:100A000088B201F000FFE948008881B24FF08040D1
:100A100003F002FAE449098888B201F0F4FEE348E1
:100A2000008881B24FF0804003F0F0F9DE49098878
:100A300088B201F0E8FEDD48008881B24FF08040C6
:100A400003F0E8F9D849098888B201F0DCFED748FC
:100A500000680A38D5490860D4480068B0F5966F38
:100A6000C5DC1AE0CE48008881B2CE4803F0CEF94A
:100A7000CD49098888B201F0C6FEC948008881B214
:100A8000C84803F0C5F9C849098888B201F0BBFE1F
:100A9000C3480068C01CC2490860C148006840F2F1
:100AA00072618842DEDB642001F0ADFE34E0BF48B5
:100AB000008881B24FF0804003F0AAF9BA49098852
:100AC00088B201F0A0FEB948008881B24FF08040A2
:100AD00003F0A2F9B449098888B201F094FEB34842
:100AE000008881B24FF0804003F090F9AE49098848
:100AF00088B201F088FEAD48008881B24FF0804096
:100B000003F088F9A849098888B201F07CFEA7485B
:100B100000680A30A5490860A4480068B0F5E16F94
:100B2000C5DB10BD10B501F031FE1AE09C4800880D
:100B300081B29C4803F06AF99D49098888B201F0A6
:100B400062FE9748008881B2964803F061F998499F
:100B5000098888B201F057FE91480068C01E90498C
:100B600008608F48006840F25A518842DEDC6420F9
:100B700001F049FE34E08D48008881B24FF080409A
:100B800003F046F98A49098888B201F03CFE87489B
:100B9000008881B24FF0804003F03EF98449098813
:100BA00088B201F030FE8148008881B24FF0804069
:100BB00003F02CF97E49098888B201F024FE7B48B5
:100BC000008881B24FF0804003F024F97849098809
:100BD00088B201F018FE754800681E387349086035
:100BE0007248006840F214518842C4DC1AE06C4834
:100BF000008881B26B4803F009F96D49098888B211
:100C000001F001FE6648008881B2664803F000F9F1
:100C10006749098888B201F0F6FD61480068C01C88
:100C20005F4908605E48006840F25E618842DEDB32
:100C3000642001F0E8FD34E05C48008881B24FF0A8
:100C4000804003F0E5F85A49098888B201F0DBFDDD
:100C50005648008881B24FF0804003F0DDF85449D7
:100C6000098888B201F0CFFD5048008881B24FF06A
:100C7000804003F0CBF84E49098888B201F0C3FDEB
:100C80004A48008881B24FF0804003F0C3F84849D9
:100C9000098888B201F0B7FD444800681E30434916
:100CA00008604248006840F2A4618842C4DB10BD7D
:100CB00010B501F06BFD1AE03948008881B239485F
:100CC00003F0A4F83A49098888B201F09CFD344841
:100CD000008881B2334803F09BF83549098888B20F
:100CE00001F091FD2E480068C01E2D4908602C4877
:100CF000006840F264518842DEDC642001F083FD2C
:100D000034E02A48008881B24FF0804003F080F838
:100D10002749098888B201F076FD2448008881B20D
:100D20004FF0804003F078F82149098888B201F03B
:100D30006AFD1E48008881B24FF0804003F066F8DB
:100D40001B49098888B201F05EFD1848008881B20D
:100D50004FF0804003F05EF81549098888B201F031
:100D600052FD124800680A30104908600F480068B8
:100D700040F24A618842C4DB25E00948008881B21C
:100D8000084803F043F80A49098888B201F03BFD9E
:100D90000348008881B2034803F03AF8044909E0A7
:100DA000380000200004004024000020340000200F
:100DB0002C000020098888B201F025FDF948006860
:100DC000C01CF8490860F748006840F25461884246
:100DD000D3DB642001F017FD34E0F348008881B2D2
:100DE0004FF0804003F014F8F049098888B201F010
:100DF0000AFDED48008881B24FF0804003F00CF806
:100E0000EA49098888B201F0FEFCE748008881B20F
:100E10004FF0804002F0FAFFE449098888B201F0FF
:100E2000F2FCE148008881B24FF0804002F0F2FF0E
:100E3000DE49098888B201F0E6FCDB4800680A3820
:100E4000D9490860D848006840F26E518842C4DC35
:100E500010BD10B501F09AFC21E0D348008881B2A2
:100E60004FF0804002F0D2FFD149098888B201F0EA
:100E7000CAFCCC48008881B24FF0804002F0C8FF25
:100E8000CB49098888B201F0BEFCC74800680A381F
:100E9000C5490860C34800680A30C2490860C248B2
:100EA0000068B0F5F57F05DDBE48006840F6CE115C
:100EB0008842D2DB4FF4FA6001F0A5FC40F2DC502E
:100EC000B9490860B749086021E0B748008881B295
:100ED0004FF0804002F0A0FFB549098888B201F0C8
:100EE00092FCB048008881B24FF0804002F092FF3F
:100EF000AF49098888B201F086FCAB4800680A381F
:100F0000A9490860A74800680A30A6490860A648B1
:100F10000068B0F5FA7F05DDA248006840F6C4110C
:100F20008842D2DB4FF4FA6001F06DFC21E09E486C
:100F3000008881B24FF0804002F068FF9C49098828
:100F400088B201F060FC9748008881B24FF0804081
:100F500002F05EFF9649098888B201F054FC92487D
:100F600000680A30904908608E4800680A388D4948
:100F700008608D48006840F2E651884205DA8948E9
:100F8000006840F2D2518842D1DC4FF4FA708649B1
:100F9000086040F6C410834908604FF4FA6001F01D
:100FA00032FC21E08048008881B24FF0804002F09E
:100FB00033FF7F49098888B201F025FC7948008811
:100FC00081B24FF0804002F025FF7949098888B24C
:100FD00001F019FC744800680A30734908607148D0
:100FE00000680A386F4908606F48006840F2E651AF
:100FF000884205DA6B48006840F2D2518842D1DC61
:101000004FF4FA6001F0FFFB21E06648008881B2EE
:101010004FF0804002F0FEFE6549098888B201F079
:10102000F2FB6148008881B24FF0804002F0F4FE8C
:101030005F49098888B201F0E6FB5B4800680A3026
:1010400059490860574800680A38564908605648A8
:10105000006840F6E211884204DA52480068B0F5B0
:10106000F57FD2DC40F2DC504F4908604D49086002
:1010700021E04D48008881B24FF0804002F0C6FE6A
:101080004B49098888B201F0BEFB4648008881B20E
:101090004FF0804002F0BCFE4549098888B201F05B
:1010A000B2FB414800680A303F4908603D4800688B
:1010B0000A383C4908603C48006840F6CE11884236
:1010C00004DA38480068B0F5F57FD2DC4FF4FA60F6
:1010D00001F099FB21E03448008881B24FF0804054
:1010E00002F09AFE3249098888B201F08CFB2D4843
:1010F000008881B24FF0804002F08CFE2C490988B4
:1011000088B201F080FB284800680A382649086048
:10111000244800680A30234908602348006840F2E8
:10112000D251884205DD1F48006840F2E6518842EE
:10113000D1DB40F6C4101C4908604FF4FA7019491D
:10114000086021E01848008881B24FF0804002F02A
:101150005DFE1749098888B201F055FB11480088E7
:1011600081B24FF0804002F053FE1149098888B2E5
:1011700001F049FB0C4800680A380B49086009482F
:1011800000680A30074908600748006840F2D251F9
:10119000884205DD0348006840F2E6518842D1DB11
:1011A00010BD000038000020340000202C0000207A
:1011B0003000002010B501F0E9FA1AE0FE4800887E
:1011C00081B2FE4802F022FEFD49098888B201F092
:1011D0001AFBF948008881B2F84802F019FEF84974
:1011E000098888B201F00FFBF3480068401EF249FD
:1011F0000860F1480068B0F5AF6FDFDC642001F0F3
:1012000002FB34E0EF48008881B24FF0804002F0EA
:10121000FFFDEB49098888B201F0F5FAE94800883A
:1012200081B24FF0804002F0F7FDE549098888B2AD
:1012300001F0E9FAE348008881B24FF0804002F003
:10124000E5FDDF49098888B201F0DDFADD48008854
:1012500081B24FF0804002F0DDFDD949098888B2A3
:1012600001F0D1FAD74800680838D6490860D54857
:101270000068B0F5966FC5DC1AE0CF48008881B2EF
:10128000CE4802F0C3FDCE49098888B201F0BBFA0E
:10129000C948008881B2C94802F0BAFDC849098826
:1012A00088B201F0B0FAC4480068401CC249086026
:1012B000C148006840F2DC518842DEDB642001F066
:1012C000A2FA34E0BF48008881B24FF0804002F0BB
:1012D0009FFDBB49098888B201F095FAB94800889A
:1012E00081B24FF0804002F097FDB549098888B27D
:1012F00001F089FAB348008881B24FF0804002F0D3
:1013000085FDAF49098888B201F07DFAAD480088B3
:1013100081B24FF0804002F07DFDA949098888B272
:1013200001F071FAA74800680830A6490860A5488E
:10133000006840F2DC518842C4DB10BD10B501F0FA
:1013400025FA1AE09C48008881B29C4802F05EFDB4
:101350009B49098888B201F056FA9748008881B203
:10136000964802F055FD9649098888B201F04BFA7B
:1013700091480068401E904908608F480068B0F5A9
:10138000AF6FDFDC322001F03EFA34E08D48008898
:1013900081B24FF0804002F03BFD8949098888B254
:1013A00001F031FA8748008881B24FF0804002F0A6
:1013B00033FD8349098888B201F025FA8148008805
:1013C00081B24FF0804002F021FD7D49098888B24A
:1013D00001F019FA7B48008881B24FF0804002F09A
:1013E00019FD7749098888B201F00DFA754800683F
:1013F0000A38744908607348006840F23C518842DA
:10140000C4DC1AE06C48008881B26C4802F0FEFC33
:101410006B49098888B201F0F6F96748008881B203
:10142000664802F0F5FC6649098888B201F0EBF9DC
:1014300061480068401C604908605F48006840F2ED
:10144000DC518842DEDB322001F0DDF934E05D481A
:10145000008881B24FF0804002F0DAFC58490988D8
:1014600088B201F0D0F95748008881B24FF080402F
:1014700002F0D2FC5249098888B201F0C4F95148FF
:10148000008881B24FF0804002F0C0FC4C490988CE
:1014900088B201F0B8F94B48008881B24FF0804023
:1014A00002F0B8FC4649098888B201F0ACF9454819
:1014B00000680A30434908604248006840F2DC5145
:1014C0008842C4DB10BD10B501F060F91AE03A485B
:1014D000008881B2394802F099FC3949098888B2FC
:1014E00001F091F93448008881B2344802F090FC50
:1014F0003349098888B201F086F92F480068401EF8
:101500002D4908602C480068B0F5AF6FDFDC322051
:1015100001F079F934E02B48008881B24FF0804027
:1015200002F076FC2649098888B201F06CF925485A
:10153000008881B24FF0804002F06EFC204909889B
:1015400088B201F060F91F48008881B24FF08040F6
:1015500002F05CFC1A49098888B201F054F9194874
:10156000008881B24FF0804002F054FC1449098891
:1015700088B201F048F9134800680D381149086035
:101580001048006840F23C518842C4DC23E00A481D
:10159000008881B2094802F039FC0949098888B2FB
:1015A00001F031F90448008881B2044802F030FCAF
:1015B0000349098888B207E0380000200004004091
:1015C000280000203400002001F01DF9FE480068CA
:1015D000401CFD490860FC48006840F2DC5188422C
:1015E000D5DB322001F00FF934E0F848008881B2F1
:1015F0004FF0804002F00CFCF549098888B201F0F8
:1016000002F9F248008881B24FF0804002F004FCF9
:10161000EF49098888B201F0F6F8EC48008881B2F9
:101620004FF0804002F0F2FBE949098888B201F0EE
:10163000EAF8E648008881B24FF0804002F0EAFB09
:10164000E349098888B201F0DEF8E04800680D300F
:10165000DE490860DD48006840F2DC518842C4DBA6
:1016600010BD10B501F092F81AE0D748008881B299
:10167000D84802F0CBFBD649098888B201F0C3F8FC
:10168000D148008881B2D34802F0C2FBD049098812
:1016900088B201F0B8F8CC480068401ECA4908601A
:1016A000C9480068B0F5AF6FDFDC322001F0ABF85D
:1016B00034E0C648008881B24FF0804002F0A8FBB9
:1016C000C349098888B201F09EF8C048008881B2F9
:1016D0004FF0804002F0A0FBBD49098888B201F0BC
:1016E00092F8BA48008881B24FF0804002F08EFB39
:1016F000B749098888B201F086F8B448008881B2F9
:101700004FF0804002F086FBB149098888B201F0B1
:101710007AF8AE4800680A38AC490860AB480068FF
:1017200040F23C518842C4DC1AE0A748008881B2EC
:10173000A84802F06BFBA649098888B201F063F85B
:10174000A148008881B2A34802F062FBA049098841
:1017500088B201F058F89C480068401C9A4908601B
:101760009948006840F2DC518842DEDB322001F00B
:101770004AF834E09548008881B24FF0804002F08A
:1017800047FB9349098888B201F03DF88F480088EB
:1017900081B24FF0804002F03FFB8D49098888B24A
:1017A00001F031F88948008881B24FF0804002F0A2
:1017B0002DFB8749098888B201F025F88348008805
:1017C00081B24FF0804002F025FB8149098888B240
:1017D00001F019F87D4800680A307C4908607B48B0
:1017E000006840F2DC518842C4DB10BD10B500F047
:1017F000CDFF1AE07448008881B2764802F006FBFB
:101800007349098888B200F0FEFF6F48008881B2F2
:10181000704802F0FDFA6E49098888B200F0F3FFC3
:1018200069480068401C6849086067480068B0F56E
:10183000C86FDFDB642000F0E6FF34E06348008817
:1018400081B24FF0804002F0E3FA6149098888B222
:1018500000F0D9FF5D48008881B24FF0804002F06F
:10186000DBFA5B49098888B200F0CDFF5748008851
:1018700081B24FF0804002F0C9FA5549098888B218
:1018800000F0C1FF5148008881B24FF0804002F063
:10189000C1FA4F49098888B200F0B5FF4B4800688B
:1018A000401D4A49086049480068B0F5E16FC5DB52
:1018B0001AE04548008881B2464802F0A7FA444938
:1018C000098888B200F09FFF3F48008881B24148F4
:1018D00002F09EFA3E49098888B200F094FF3A4827
:1018E0000068401E384908603748006840F2DC5103
:1018F0008842DEDC642000F086FF34E03348008854
:1019000081B24FF0804002F083FA3149098888B2F1
:1019100000F079FF2D48008881B24FF0804002F03E
:101920007BFA2B49098888B200F06DFF27480088B0
:1019300081B24FF0804002F069FA2549098888B2E7
:1019400000F061FF2148008881B24FF0804002F032
:1019500061FA1F49098888B200F055FF1B480068EA
:10196000401F1A4908601948006840F2DC5188425B
:10197000C4DC322000F047FF10BD10B500F006FFB8
:101980001AE01148008881B2124802F03FFA10496B
:10199000098888B200F037FF0B48008881B20D48F3
:1019A00002F036FA0A49098888B200F02CFF06488E
:1019B0000068401C0449086003480068B0F5C86F1F
:1019C000DFDB322008E00000380000203400002077
:1019D000280000200004004000F015FF34E0FE481D
:1019E000008881B24FF0804002F012FAFB4909886A
:1019F00088B200F008FFF848008881B24FF08040BC
:101A000002F00AFAF549098888B200F0FCFEF248B3
:101A1000008881B24FF0804002F0F8F9EF49098860
:101A200088B200F0F0FEEC48008881B24FF08040B0
:101A300002F0F0F9E949098888B200F0E4FEE648CE
:101A400000680A30E4490860E348006840F27C61BD
:101A50008842C4DB1AE0E248008881B2E14802F023
:101A6000D5F9DE49098888B200F0CDFEDC4800884F
:101A700081B2DC4802F0CCF9D849098888B200F07C
:101A8000C2FED7480068401ED5490860D4480068A7
:101A900040F2DC518842DEDC322000F0B4FE34E05B
:101AA000CD48008881B24FF0804002F0B1F9CB49B7
:101AB000098888B200F0A7FEC748008881B24FF0BD
:101AC000804002F0A9F9C549098888B200F09BFE60
:101AD000C148008881B24FF0804002F097F9BF49B9
:101AE000098888B200F08FFEBB48008881B24FF0B1
:101AF000804002F08FF9B949098888B200F083FE6E
:101B0000B54800680A38B4490860B348006840F234
:101B1000DC518842C4DC10BD10B500F037FE1AE07D
:101B2000AF48008881B2AF4802F070F9AB4909882C
:101B300088B200F068FEAA48008881B2A94802F085
:101B400067F9A649098888B200F05DFEA4480068DC
:101B5000401CA3490860A2480068B0F5C86FDFDBED
:101B6000322000F050FE34E09B48008881B24FF0F4
:101B7000804002F04DF99949098888B200F043FE8F
:101B80009548008881B24FF0804002F045F99349B2
:101B9000098888B200F037FE8F48008881B24FF084
:101BA000804002F033F98D49098888B200F02BFE9D
:101BB0008948008881B24FF0804002F02BF98749B4
:101BC000098888B200F01FFE834800680A30824905
:101BD00008608148006840F27C618842C4DB1AE0FA
:101BE0007F48008881B27F4802F010F97B4909885C
:101BF00088B200F008FE7A48008881B2794802F085
:101C000007F97649098888B200F0FDFD744800683C
:101C1000401E734908607248006840F2DC518842F7
:101C2000DEDC322000F0EFFD34E06B48008881B24A
:101C30004FF0804002F0ECF86849098888B200F063
:101C4000E2FD6548008881B24FF0804002F0E4F880
:101C50006249098888B200F0D6FD5F48008881B2E9
:101C60004FF0804002F0D2F85C49098888B200F059
:101C7000CAFD5948008881B24FF0804002F0CAF88E
:101C80005649098888B200F0BEFD534800680A38FA
:101C9000514908605048006840F2DC518842C4DC79
:101CA00010BD10B500F072FD40F2DC514FF08040E5
:101CB00002F0ACF840F2DC514FF0804002F0A8F89E
:101CC00040F2DC514FF0804002F0A4F840F2DC51C9
:101CD0004FF0804002F0A0F840F2DC51414802F0A1
:101CE00095F840F2DC513F4802F092F84FF47A70D8
:101CF00000F089FD10BD10B500F048FD2CE036481D
:101D0000008881B24FF0804002F082F8032000F09A
:101D10007AFD3148008881B24FF0804002F07CF8B3
:101D2000032000F070FD2C48008881B24FF0804005
:101D300002F06CF8032000F066FD2748008881B2AD
:101D40004FF0804002F066F8032000F05CFD22486E
:101D50000068401F204908601F48006840F2DC51BD
:101D60008842CCDC16E01E48008881B21D4802F093
:101D70004DF8032000F047FD1948008881B219484A
:101D800002F046F8032000F03EFD15480068801E72
:101D9000134908601248006840F2DC518842E2DCD6
:101DA00010BD10B500F0F2FC25E00D48008881B2AE
:101DB0000C4802F02BF80C49098888B200F023FD8A
:101DC0000748008881B2074802F022F806490988CE
:101DD00088B200F018FD09E034000020280000203F
:101DE00038000020000400402C000020FE4800685D
:101DF000C01EFD490860FC48006840F25A51884204
:101E0000D3DC642000F0FFFC34E0F848008881B2A5
:101E10004FF0804001F0FCFFF549098888B200F0DE
:101E2000F2FCF248008881B24FF0804001F0F4FFEC
:101E3000EF49098888B200F0E6FCEC48008881B2DE
:101E40004FF0804001F0E2FFE949098888B200F0D4
:101E5000DAFCE648008881B24FF0804001F0DAFFFA
:101E6000E349098888B200F0CEFCE04800683238C7
:101E7000DE490860DD48006840F214518842C4DC45
:101E80001AE0D948008881B2DA4801F0BFFFD8498A
:101E9000098888B200F0B7FCD348008881B2D548E1
:101EA00001F0B6FFD249098888B200F0ACFCCE48F8
:101EB0000068C01CCC490860CB48006840F25E61F5
:101EC0008842DEDB642000F09EFC34E0C7480088D6
:101ED00081B24FF0804001F09BFFC549098888B26C
:101EE00000F091FCC148008881B24FF0804001F0C1
:101EF00093FFBF49098888B200F085FCBB48008881
:101F000081B24FF0804001F081FFB949098888B261
:101F100000F079FCB548008881B24FF0804001F0B4
:101F200079FFB349098888B200F06DFCAF480068BA
:101F30003230AE490860AD48006840F2A461884282
:101F4000C4DB10BD10B5FFF7E7FD0A2000F05BFC15
:101F5000FFF7E2FD0A2000F056FCFFF7DDFD0A2046
:101F600000F051FC10BD10B5FEF7A2FE0A2000F0F3
:101F70004AFCFEF79DFE0A2000F045FCFEF798FEA5
:101F80000A2000F040FCFFF7C7FD0A2000F03BFCF0
:101F9000FFF7C2FD0A2000F036FCFFF7BDFD0A2066
:101FA00000F031FC10BD10B54DE0FEF7F7FC924893
:101FB0000068012808D091480068012809D18F489D
:101FC000001D0068012804D18D480068401C8C4920
:101FD000086034E088480068012804D08748001D64
:101FE0000068012807D1FFF797FDFFF795FDFFF780
:101FF00093FDFFF791FD80480068012811D17F48CB
:10200000006801280DD17D4810300068012808D1F2
:1020100079480C300068012803D1FEF7BFFCFFF7B8
:10202000E5FBFEF7BBFC05E0FFF74DFAFFF74BFAC7
:10203000FEF7B4FC7048083000680028F4D07048FF
:1020400000680028C6DC6F4800680528ADDC10BDBC
:1020500010B504466848006801280DD0674800683C
:10206000012809D0654810300068012804D0624872
:102070000C30006801287DD15F48001F00680128EE
:10208000F9D15D480C300068012803D15B4810305D
:10209000006830B158480068012814D157480068DA
:1020A00088B95548001F006801280CD1FFF746F990
:1020B00054480068401E53490860084600680028DC
:1020C00001DA002008604D4810300068012807D070
:1020D00049480068012815D048480068012811D0F7
:1020E0004548001F006801280CD1FFF7ECF945486E
:1020F0000068401E4349086008460068002801DA6D
:10210000002008603C480C300068012804D13B489E
:1021100010300068012807D037480068012803D034
:1021200036480068012814D13348001F0068012890
:102130000FD1FFF7C8F90A2000F065FB31480068AD
:10214000401E3049086008460068002801DA002077
:10215000086029480C30006818B928481030006819
:1021600038B12548006801281AD0244800680128A1
:1021700016D000E06AE02048001F006801280FD157
:10218000FFF7DCF80A2000F03EFB1E480068401E06
:102190001C49086008460068002801DA0020086031
:1021A0001548006801284BD114480068012847D120
:1021B000124810300068012842D10F480C300068E6
:1021C00001283DD1FEF7EAFB641CFEF7E7FB642023
:1021D00000F019FBFFF777F9FFF775F9FFF773F9CF
:1021E000FFF771F910E000003800002034000020F3
:1021F0002C000020000400402801214210812142CF
:102200000400002000000020FFF75DF9FFF75BF9F4
:10221000642000F0F8FAFFF76EFD642000F0F3FA96
:10222000FEF746FD642000F0EEFA82480068401E8A
:102230008049086008460068002801DA002008602C
:102240007D48006890B9FFF798FB0FE07A48006876
:10225000012809D1FEF7A2FBFEF7ACFF7548006824
:10226000401C7449086001E0FEF798FB7348006861
:1022700060B9FFF778FE6F480068401E6D4908603E
:1022800008460068002801DA002008606A48001D3E
:10229000006808BB69480C380068E8B96748001D49
:1022A0000068C8B9644810300068A8B9624800687E
:1022B000012811D16148006801280DD15F48083814
:1022C000006848B95C480C300068012804D15948BE
:1022D0000068401C5749086056480068052801DD21
:1022E000FFF761FE10BD10B50446641C5248001D86
:1022F000006801280ED051480C380068012809D028
:102300004E48001D0068012804D04B48103000687A
:1023100001285BD148480068012857D14848006827
:10232000401C47490860444810300068012812D119
:102330004248001D006801280DD13F48006801286F
:1023400009D108460068012802D1FFF7BCF83DE03A
:10235000FEF730FF3AE0384810300068012818D105
:102360003648001D0068A0B933480068012810D124
:10237000FEF720FF33480068401C324908600846D9
:102380000068022801DDFEF709FB0A2000F03BFA95
:102390001CE029481030006818B92848001D006862
:1023A00038B12548001D006860B924480C38006821
:1023B00040B921480068012804D1FFF7ADFBFEF7C2
:1023C000EDFA03E0FEF7F6FEFEF7E8FA1A48001D04
:1023D000006870BB19480C38006850BB1748001DD6
:1023E000006830BB14481030006810BB1448006807
:1023F000F8B115E01248006880B100BFFEF758FC44
:102400000F480068104908600D480068401C0C49DE
:1024100008600D48006809688842EFD0FFF792FD18
:10242000064800680028E5D003480C300068002802
:10243000E0D010BD00000020240121421C81214277
:10244000400000203C000020440000201CB5012179
:10245000042000F0AFFD48208DF8070049F202602B
:10246000ADF8040003208DF8060001A90A4800F029
:10247000E5FA0121082000F09DFD48208DF80300B9
:102480004FF4F870ADF8000003208DF802006946A3
:10249000024800F0D3FA1CBD00080140000C0140C6
:1024A0001FB50121A74800F09AFB01210D2000F083
:1024B00081FD4020ADF80C0010208DF80F000320A6
:1024C0008DF80E0003A9A04800F0B8FA4FF40040C0
:1024D000ADF80C0028208DF80F0003A99B4800F0F0
:1024E000ADFA0F21002000F0BFFB4FF40040019037
:1024F00000208DF8080008208DF8090001208DF8D3
:102500000A0001A801F0DAFE28208DF80000022060
:102510008DF801008DF8020001208DF80300684657
:1025200000F0C3F91FBD2DE9F0410A2000F047F982
:102530004FF4004001F028FF00287DD0002184489E
:1025400001F060FC0121824801F0C8F900BF4FF49E
:1025500000417E4800F005FB0028F8D100217C48AE
:1025600001F0BCF97A4801F070FC00EB800000EB50
:1025700000104400204603F031F905460022754B57
:1025800002F0D4FF074602F0EBFE73490860002119
:102590007148006803F0ADFB7DD26F48006803F01E
:1025A000F1FA044622460B466CA001F009FF6F4980
:1025B0006948006803F09DFB08D26D480068012857
:1025C00004D16C480068401C6A4908606248016890
:1025D000694803F00FFB01D2012000E00020B0F5B4
:1025E000E17F0DDC62480068012809D1FFF7C5F9D9
:1025F000FEF7E0FD5F480068401C5E49086068E047
:10260000554801685D4803F0F5FA01D2012000E069
:102610000020B0F5AF7F18DC55480068A8B9FEF778
:1026200047FBFEF745FBFEF74EFFFEF74CFFFEF7BC
:102630004AFFFEF73DFB00E074E0FFF79EF94D48CE
:102640000068401C4B49086043E0434801684C481F
:1026500003F0D0FA01D2012000E00020FA281BDCB0
:1026600043480068C0B9FEF723FBFEF721FBFEF7E5
:102670001FFBFEF728FFFEF726FFFEF724FFFEF7FD
:1026800022FFFEF715FBFFF778F93A480068401C77
:10269000384908601DE041E039492F48006803F0DF
:1026A000A9FA16D2FEF704FBFEF702FBFEF700FBC9
:1026B000FEF7FEFAFEF707FFFEF705FFFEF703FF42
:1026C000FEF7F6FAFFF759F92A480068401C294935
:1026D000086028480068052190FBF1F201FB120018
:1026E00028B91D48006803F04DFA264A03C21A486B
:1026F000006803F047FA064622480CC8304603F04B
:102700004BF904460022204B03F010F901D20120BE
:1027100000E000200A2801DAFEF740F94FF40040FB
:1027200001F043FEBDE8F08110B54021064800F0FD
:1027300032FA142000F043F84021034800F02DFA4B
:1027400010BD000000023000000C014000080140F4
:10275000000800400000694048000020646973746C
:10276000616E63653A256620636D00000000E143F9
:1027700030012142580000200000AF4300007A439E
:102780000000524350000020000024C010B56FF03C
:10279000040000F0D4F82E4800682E49B0FBF1F098
:1027A0002D4908700846007800EB4001C1EBC010CD
:1027B0004FF6FF7101EAC0002849088010BD0146AC
:1027C000254A12784A434FF0E0235A6100229A6169
:1027D0001A46126942F001021A6100BF4FF0E0226E
:1027E000106900F001021AB100F48032002AF5D01D
:1027F0004FF0E022126922F001024FF0E0231A614B
:1028000000229A6170470146144A12884A434FF0E9
:10281000E0235A6100229A611A46126942F00102CD
:102820001A6100BF4FF0E022106900F001021AB1F6
:1028300000F48032002AF5D04FF0E022126922F035
:1028400001024FF0E0231A6100229A6170470000F4
:102850000800002000127A005C0000205E000020CA
:102860000948804709480047FEE7FEE7FEE7FEE724
:10287000FEE7FEE7FEE7FEE7FEE7FEE70448054960
:10288000054A064B70470000870500083101000823
:10289000A0010020A0070020A0030020A00300202A
:1028A00031490143314A1160704770B5002100235E
:1028B0000F22C47804B32D4C246804F4E064C4F5FA
:1028C000E064210AC1F10403CA40447804FA03F128
:1028D0008478144021430901254C0678A1550478D9
:1028E00004F01F050124AC4005786D11AD0005F121
:1028F000E025C5F8004109E0047804F01F05012433
:10290000AC401C4D0678761145F8264070BD1A4A39
:102910000A400243154B1B1F1A60704739B1134A16
:10292000121D12680243114B1B1D1A6006E00F4A6C
:10293000121D126882430D4B1B1D1A60704704283C
:1029400008D14FF0E021096941F004014FF0E02285
:10295000116107E04FF0E021096921F004014FF017
:10296000E0221161704700000000FA050CED00E064
:1029700000E400E080E100E080FFFF1F10B50446A6
:10298000CC48844208D10121042000F02DFB002115
:10299000042000F029FB46E0C748844208D1012109
:1029A000082000F021FB0021082000F01DFB3AE088
:1029B000C248844208D10121102000F015FB0021FB
:1029C000102000F011FB2EE0BD48844208D1012107
:1029D000202000F009FB0021202000F005FB22E070
:1029E000B848844208D10121402000F0FDFA0021BE
:1029F000402000F0F9FA16E0B348844208D10121E2
:102A0000802000F0F1FA0021802000F0EDFA0AE0C9
:102A1000AE48844207D10121801500F0E5FA00217B
:102A2000A01500F0E1FA10BD10B50121084600F034
:102A3000DBFA0021012000F0D7FA10BD2DE9F041AA
:102A4000024600250026002000230024002791F8DC
:102A500003C00CF00F0591F803C00CF0100CBCF192
:102A6000000F03D091F802C04CEA050591F800C0B0
:102A7000BCF1000F31D0146800202BE04FF0010CA6
:102A80000CFA00F3B1F800C00CEA03069E4220D114
:102A900083004FF00F0C0CFA03F7BC4305FA03FC5C
:102AA0004CEA040491F803C0BCF1280F06D14FF0A2
:102AB000010C0CFA00FCC2F814C00AE091F803C043
:102AC000BCF1480F05D14FF0010C0CFA00FCC2F824
:102AD00010C0401C0828D1D31460B1F800C0BCF16C
:102AE000FF0F34DD546800202EE000F1080C4FF099
:102AF000010808FA0CF3B1F800C00CEA03069E4284
:102B000021D183004FF00F0C0CFA03F7BC4305FAF8
:102B100003FC4CEA040491F803C0BCF1280F05D172
:102B200000F1080C08FA0CF8C2F8148091F803C000
:102B3000BCF1480F07D100F1080C4FF0010808FA6A
:102B40000CF8C2F81080401C0828CED35460BDE8B1
:102B5000F0814FF6FF710180022181700421C17064
:102B600070470246002093680B400BB1012000E043
:102B7000002070470146886880B2704702460020F6
:102B8000D3680B400BB1012000E0002070470146E4
:102B9000C86880B2704701617047416170470AB1EF
:102BA000016100E041617047C16070474FF48032BD
:102BB0000A4382618161826182698269704702464B
:102BC0000020434B18684FF68073184040EA02100B
:102BD00008433F4B186070473E49C8617047F0B5E5
:102BE0000A46002300240021002500F00046B6F12B
:102BF000004F02D1364EF16901E0354E7168C0F3E5
:102C0000034583B200F44016B6F5401F08D121F009
:102C100070612F4E766826F070662D4F7E6012E050
:102C200000F48016B6F5801F06D1032606FA05F4D7
:102C3000A14341F0706106E0460D360103FA06F645
:102C4000B14341F0706122B1460D360103FA06F638
:102C5000314300F00046B6F1004F02D11C4EF16145
:102C600001E01B4E7160F0BD30B500228B071C0FD8
:102C70000F2303FA04F2164B08338C1053F8243058
:102C80009343134C08348D1044F8253023468C10A0
:102C900053F824308C07240F00FA04F423430C4C1F
:102CA00008348D1044F8253030BD0A49DC31086005
:102CB0007047000000080140000C01400010014076
:102CC0000014014000180140001C01400020014098
:102CD0000000014000002042DF48006840F0010091
:102CE000DD49086008464068DC490840DA49486028
:102CF00008460068DA490840D74908600846006875
:102D000020F4802008600846406820F4FE004860F7
:102D10004FF41F0088607047CF49096821F4803163
:102D2000CD4A11601146096821F480211160B0F587
:102D3000803F03D0B0F5802F0ED106E0C649096868
:102D400041F48031C44A116007E0C349096841F485
:102D5000A021C14A116000E000BF00BF704710B55C
:102D600001460022002300204A11012A02D1BA4C58
:102D7000236806E0022A02D1B74C236A01E0B64C70
:102D8000636A01F01F02012494401C400CB1012031
:102D900000E0002010BD38B5002000900024002580
:102DA00000BF3120FFF7DBFF05460098401C009074
:102DB0000098B0F5A06F01D0002DF2D03120FFF7C0
:102DC000CEFF08B1012400E00024204638BD0146B2
:102DD0000020A14A106820F0F80040EAC10010600D
:102DE0007047A04908607047024600209A4B586817
:102DF00020F47C1042EA01031843974B5860704757
:102E000098490866704701460020934A506820F0B0
:102E100003000843506070478F48406800F00C0082
:102E20007047014600208C4A506820F0F0000843AB
:102E30005060704701460020874A506820F4E060E7
:102E400008435060704701460020834A506820F4D0
:102E5000605040EAC1005060704729B17E4A527A02
:102E600002437D4B5A7204E07B4A527A82437A4B8A
:102E70005A7270477B49D83108607047014600207C
:102E8000754A506820F44040084350607047002164
:102E9000714A20321170704A82F82010012802D045
:102EA00004280AD104E001216B4A2032117005E0A8
:102EB0000521694A2032117000E000BF00BF704751
:102EC0006949086070476449096A0143624A1162AE
:102ED0007047654944390860704730B500210022C9
:102EE000002400235C4D6D6805F00C0121B104291C
:102EF00005D0082923D105E05C4D056022E05B4D3B
:102F000005601FE0544D6D6805F47012524D6D68F8
:102F100005F48034022505EB92421CB9544D55430B
:102F200005600BE04C4D6D6805F400351DB1504D4A
:102F30005543056002E04D4D5543056002E04B4DA1
:102F4000056000BF00BF444D6D6805F0F001090940
:102F5000484D6B5C0568DD4045603F4D6D6805F48C
:102F6000E061090A434D6B5C4568DD4085603A4D80
:102F70006D6805F46051C90A3E4D6B5C4568DD40E3
:102F8000C560354D6D6805F44041890B3A4D6B5C69
:102F9000C568B5FBF3F5056130BD29B12E4A52690C
:102FA00002432D4B5A6104E02B4A526982432A4B5B
:102FB0005A61704729B1284A92690243264B9A61A7
:102FC00004E0254A92698243234B9A61704729B1F4
:102FD000214AD2690243204BDA6104E01E4AD269D9
:102FE00082431D4BDA61704729B11B4AD268024304
:102FF000194BDA6004E0184AD2688243164BDA6053
:10300000704729B1144A12690243134B1A6104E054
:10301000114A12698243104B1A61704712494039B4
:10302000086070470F49C86470470B49C871704702
:103030000948406A40F0807007494862704701467D
:103040000020054A92680A400AB1012000E00020F1
:103050007047014988727047001002400000FFF875
:10306000FFFFF6FE000042428004424200127A0056
:1030700000093D00600000207000002010B50446EB
:10308000FE48844208D10121C014FFF7ADFF0021A2
:10309000E014FFF7A9FFC4E0B4F1804F08D101218B
:1030A0000846FFF7AEFF00210120FFF7AAFFB8E0B6
:1030B000F348844208D101210220FFF7A2FF00213A
:1030C0000220FFF79EFFACE0EE48844208D10121C8
:1030D0000420FFF796FF00210420FFF792FFA0E0F5
:1030E000E948844208D101210820FFF78AFF002126
:1030F0000820FFF786FF94E0E448844208D10121CC
:103100001020FFF77EFF00211020FFF77AFF88E0F4
:10311000DF48844208D101212020FFF772FF0021FF
:103120002020FFF76EFF7CE0DA48844208D10121BD
:103130004014FFF759FF00216014FFF755FF70E0BE
:10314000D548844209D10121C804FFF74DFF002171
:103150004FF40020FFF748FF63E0D048844209D1D4
:1031600001210805FFF740FF00214FF48010FFF711
:103170003BFF56E0CA48844209D101214805FFF7C8
:1031800033FF00214FF40010FFF72EFF49E0C54840
:10319000844208D101214020FFF733FF0021402065
:1031A000FFF72FFF3DE0C048844208D10121802075
:1031B000FFF727FF00218020FFF723FF31E0BB4806
:1031C000844208D101218015FFF71BFF0021A015C3
:1031D000FFF717FF25E0B648844209D10121080412
:1031E000FFF702FF00214FF48030FFF7FDFE18E0EB
:1031F000B048844209D101214804FFF7F5FE0021BF
:103200004FF40030FFF7F0FE0BE0AB48844208D1EA
:1032100001218804FFF7E8FE00214FF48020FFF72A
:10322000E3FE10BD00220288944B98420ED0994BC9
:1032300098420BD0B0F1804F08D0914B984205D006
:10324000904B984202D0904B984204D14FF68F7326
:103250001A404B881A438D4B984207D08C4B9842AA
:1032600004D04FF6FF431A40CB881A4302808B8864
:1032700083850B880385814B98420BD0854B984200
:1032800008D08B4B984205D08A4B984202D08A4B8B
:10329000984201D10B7A038601238382704770B56F
:1032A000002400220023058C4FF6FE76354005846D
:1032B000028C8388048B4FF68F752C40B51E2C40F2
:1032C0000D882C43751E2A400D892A434D882A43B8
:1032D0006A4DA8420BD06F4DA84208D0744DA84249
:1032E00005D0744DA84202D0734DA84213D14FF6B9
:1032F000F7752A404D892A434FF6FB752A408D8881
:103300002A434FF6FF652B404FF6FF552B408D8922
:103310002B43CD892B4383800483CD88858602840B
:1033200070BD70B5002400220023058C4FF6EF76A7
:1033300035400584028C8388048B48F6FF752C4049
:103340004FF6FF452C400D884FF6FF7606EA05251F
:103350002C434FF6DF752A400D8906EA05152A43EE
:103360004D8806EA05152A43444DA84202D0494D2E
:10337000A8421DD14FF67F752A404D894FF6FF7642
:1033800006EA05152A434FF6BF752A408D8806EADE
:1033900005152A434FF6FF352B404FF2FF752B40A2
:1033A0008D8906EA85052B43CD8906EA85052B43E1
:1033B00083800483CD880587028470BD70B50024A6
:1033C00000220023058C4FF6FF6635400584028CF1
:1033D0008388848B4FF68F752C404FF6FC752C40FC
:1033E0000D882C434FF6FF552A400D894FF6FF7686
:1033F00006EA05252A434D8806EA05252A431F4D7E
:10340000A84202D0234DA8421DD14FF2FF752A4099
:103410004D894FF6FF7606EA05252A434FF6FF351C
:103420002A408D8806EA05252A434EF6FF752B4073
:103430004DF6FF752B408D8906EA05152B43CD8986
:1034400006EA05152B4383808483CD888587028413
:1034500070BD70B5002200230024058C4EF6FF7667
:1034600035400584038C8488828B48F6FF752A409A
:103470004FF6FF452A400D8820E00000002C014057
:103480000004004000080040000C00400010004014
:103490000014004000340140004C01400050014045
:1034A0000054014000180040001C00400020004073
:1034B0000040014000440140004801404FF6FF76C3
:1034C00006EA05252A434DF6FF752B400D8906EACD
:1034D00005352B434D8806EA05352B43FA4DA842A6
:1034E00002D0FA4DA84208D14BF6FF752C408D89C9
:1034F0004FF6FF7606EA85152C4384808283CD88BB
:10350000A0F84050038470BD828B4FF2FF331A4005
:103510008283828B4FF6FF7303EA01231A4382836F
:103520007047F0B50C461546002200210026078C96
:103530004EF6FF7C07EA0C070784828B018C4FF65E
:10354000FF7707EA043640F6FF473A404FF6FF7729
:1035500007EA05273A434FF6FF7707EA03373A436E
:10356000D94FB8420ED0D94FB8420BD0B0F1804FEE
:1035700008D0D74FB84205D0D64FB84202D0D64F68
:10358000B84206D14DF6FF77394046F480573943AB
:1035900005E047F6FF57394044F4805739438283AA
:1035A0000184F0BD828B4FF6F3731A408283828BC5
:1035B0000A4382837047F0B50C461546002200216D
:1035C0000026078C4FF6FF6C07EA0C070784828BF6
:1035D000018C4FF6FF7707EA04264FF60C773A4046
:1035E0004FF6FF7707EA03172F433A43B64FB84227
:1035F0000ED0B64FB8420BD0B0F1804F08D0B44FC8
:10360000B84205D0B34FB84202D0B34FB84206D14A
:103610004FF6FF57394046F48077394305E04FF2C3
:10362000FF57394044F48077394382830184F0BDE9
:10363000028B4FF2FF331A400283028B4FF6FF7367
:1036400003EA01231A4302837047F0B50C4615467E
:10365000002200210026078C4FF6EF7C07EA0C07BA
:103660000784028B018C4FF6FF7707EA041640F6B9
:10367000FF473A404FF6FF7707EA03373A434FF6E2
:10368000FF7707EA05273A438F4FB8420ED08F4F96
:10369000B8420BD0B0F1804F08D08D4FB84205D062
:1036A0008C4FB84202D08C4FB84206D14FF6DF772C
:1036B000394046F01007394305E04FF65F7739404F
:1036C00044F01007394302830184F0BD028B4FF6AA
:1036D000F3731A400283028B0A4302837047F0B5EA
:1036E0000C46154600220021068C4FF6FE773E4020
:1036F0000684028B018C4FF60C7632407E1C06EA63
:1037000003162E433243704EB0420ED06F4EB0427D
:103710000BD0B0F1804F08D06D4EB04205D06D4E49
:10372000B04202D06C4EB04206D14FF6FD76314029
:1037300044F00106314305E04FF6F576314044F0A0
:103740000106314302830184F0BD70B505460C4685
:103750005D4885420ED05D4885420BD0B5F1804F63
:1037600008D05B48854205D05A48854202D05A4865
:10377000854200D100E000BF208850B92389A2888B
:1037800061882846FFF7ABFFE1882846FFF79EFFD8
:1037900025E0208804280AD12389A2886188284648
:1037A000FFF753FFE1882846FFF742FF17E0208824
:1037B00008280AD12389A28861882846FFF7FBFEE2
:1037C000E1882846FFF7EEFE09E02389A288618898
:1037D0002846FFF7A6FEE1882846FFF795FE70BD54
:1037E0002DE9F04105460C4600260127608808B9FE
:1037F000022600E00026A088012801D1022700E06F
:1038000001272088A0B92389A28861882846FFF76C
:1038100066FFE1882846FFF759FF23893A4631467B
:103820002846FFF712FFE1882846FFF701FF13E063
:103830002389A28861882846FFF707FFE188284688
:10384000FFF7F6FE23893A4631462846FFF747FF41
:10385000E1882846FFF73AFFBDE8F0810A884B88E7
:103860001A438B881A43CB881A430B891A434B8916
:103870001A438B891A43A0F8442070474FF6FF7112
:10388000818000210180C180418001727047002148
:10389000018041808180C180018141818181C1811C
:1038A0007047002101804180012181800021C18079
:1038B000018170470021018041808180C1800181A8
:1038C0004181818170470000002C0140003401409B
:1038D0000004004000080040000C004021B10288B4
:1038E00042F00102028004E002884FF6FE731A40A3
:1038F0000280704731B1B0F8442042F40042A0F891
:10390000442005E0B0F84420C2F30E02A0F84420A1
:1039100070471AB183890B43838102E083898B430B
:10392000838170478182704741EA0203A0F84830E2
:1039300070471AB183890B43838102E083898B43EB
:103940008381704701894FF6F872114001817047F9
:103950000A46002101894FF68F73194011430181F6
:10396000704730B504460D4629462046FFF7F0FF64
:10397000208940F00700208130BD2DE9F041044648
:103980000D4616461F46602D06D13B4601223146A4
:103990002046FFF75AFE05E03B460122314620460D
:1039A000FFF79DFE29462046FFF7D2FF208940F011
:1039B00007002081BDE8F08130B50C460021018967
:1039C000C9B24FF6FF7505EA032515432543294380
:1039D000018130BD2DE9F04105460E461746984657
:1039E000002443463A4631462846FFF7E5FF2C8936
:1039F0004FF6F870044044F007044FF68F7004400F
:103A000044F070042C81BDE8F081F0B504460D4609
:103A100016461F463B46324629462046FFF7CCFF56
:103A2000208940F480402081F0BD0185828270476A
:103A30000A46002101884FF68F7319401143018017
:103A40007047F0B50C4615461E46002100220023A3
:103A50000189028B038C4FF6F877394021434FF6EA
:103A6000FC473A4040F201173A434FF6DD773B40BE
:103A70004FF6FF7707EA06172F433B430181028386
:103A80000384F0BD0A460021018B4FF68F73194065
:103A90001143018370470A460021018B48F6FF73EA
:103AA00019404FF6FF7303EA02231943018370475D
:103AB0000A460021818B4FF68F7319401143818391
:103AC00070470A460021818B48F6FF7319404FF674
:103AD000FF7303EA022319438183704721B10288EF
:103AE00042F08002028004E002884FF67F731A40A1
:103AF0000280704721B1828842F00402828004E093
:103B000082884FF6FB731A408280704721B1828809
:103B100042F00802828004E082884FF6F7731A4070
:103B20008280704721B1828842F00102828004E0E5
:103B300082884FF6FE731A40828070470A46002141
:103B4000018B4FF6F77319401143018370470A4602
:103B50000021018B4FF2FF7319404FF6FF7303EA08
:103B600002231943018370470A460021818B4FF6D7
:103B7000F77319401143818370470A460021818BF6
:103B80004FF2FF7319404FF6FF7303EA0223194304
:103B9000818370470A460021018B4FF6FB73194061
:103BA0001143018370470A460021018B4FF6FF3312
:103BB00019404FF6FF7303EA02231943018370474C
:103BC0000A460021818B4FF6FB7319401143818314
:103BD00070470A460021818B4FF6FF3319404FF69C
:103BE000FF7303EA02231943818370470A460021C9
:103BF000018B4FF67F7319401143018370470A46CA
:103C00000021018BC1F30E014FF6FF7303EA02237B
:103C10001943018370470A460021818B4FF67F7359
:103C200019401143818370470A460021818BC1F3FB
:103C30000E014FF6FF7303EA022319438183704795
:103C40000A460021018C4FF6FD731940114301848F
:103C500070470A460021018C4FF6F7731940114353
:103C6000018470470A460021018C4FF6DF7319402A
:103C70004FF6FF7303EA02131943018470470A46A3
:103C80000021018C4FF67F7319404FF6FF7303EA52
:103C900002131943018470470A460021018C4FF634
:103CA000FF5319404FF6FF7303EA022319430184BF
:103CB00070470A460021018C4FF2FF7319404FF6FE
:103CC000FF7303EA02231943018470470A46002167
:103CD000018C4DF6FF7319404FF6FF7303EA023370
:103CE00019430184704730B5002301248C40A3B2EE
:103CF000048C9C430484048C02FA01F5ADB22C437D
:103D0000048430BD30B5002304248C40A3B2048C5D
:103D10009C430484048C02FA01F5ADB22C43048464
:103D200030BD70B503460020002418461830012528
:103D30008D40ACB21D8CA5431D8409B1082909D161
:103D400000EB6100056825F0700505600568154306
:103D500005600EE00D1FC5F34E052844056825F4E7
:103D6000E045056005684FF6FF7606EA0226354312
:103D7000056070BD21B1028842F00202028004E0B9
:103D800002884FF6FD731A400280704721B1028805
:103D900042F00402028004E002884FF6FB731A40EE
:103DA0000280704721B1828842F08002828004E064
:103DB00082884FF67F731A408280704702884FF6E0
:103DC000F7731A40028002880A4302807047828893
:103DD0004FF68F731A40828082880A438280704730
:103DE00002894FF6F8731A40028102890A43028160
:103DF000704702894FF67F731A40028102890A4395
:103E00000281704781847047818570478186704741
:103E10000187704781877047A0F84010704702887B
:103E20004FF6FF431A40028002880A43028070471F
:103E30000146888E70470146088F70470146888F7B
:103E400070470146B1F8400070470146888C7047C2
:103E50000146088D704702460020138A0B400BB1C3
:103E6000012000E000207047CA430282704730B54D
:103E70000246002000230024158A05EA01039589E3
:103E800005EA010413B10CB1012000E0002030BDAF
:103E9000CA4302827047000010B50446FB488442C2
:103EA00009D101218803FFF79FF800214FF48040DA
:103EB000FFF79AF832E0F648844209D1012148041C
:103EC000FFF79FF800214FF40030FFF79AF825E044
:103ED000F048844209D101218804FFF792F80021BB
:103EE0004FF48020FFF78DF818E0EB48844209D1A9
:103EF0000121C804FFF785F800214FF40020FFF7E7
:103F000080F80BE0E548844208D101210805FFF75D
:103F100078F800214FF48010FFF773F810BD2DE9F9
:103F2000F04786B005460E460024A24600BFA146D3
:103F30000027B08900B100BF2F462C8A4CF6FF70D5
:103F40000440F08804432C82AC894EF6F310044000
:103F5000B08831890843718908430443AC81AC8A35
:103F60004FF6FF400440B0890443AC8201A8FEF73D
:103F7000B4FFC648874202D1DDF810A001E0DDF8A9
:103F80000CA0A88900F4004040B10AEBCA0000EB85
:103F90000A1031684900B0FBF1F807E00AEBCA00EB
:103FA00000EB0A1031688900B0FBF1F86420B8FB1F
:103FB000F0F004012009642101FB1089A88900F4B4
:103FC000004040B1322000EBC900B0FBF1F000F03E
:103FD0000700044308E0322000EB09106421B0FB25
:103FE000F1F000F00F0004432C8106B0BDE8F0872B
:103FF0004FF41651016000218180C18001810C21A4
:10400000418100218181704710B502460020108A4D
:104010004FF2FF0318400B884C8823438C882343BE
:10402000CC8823431843108210BD002101804180B9
:104030008180C180704721B1828942F4005282811F
:1040400004E082894DF6FF731A4082817047F0B513
:104050000346002400260025002040F66A17B942D6
:1040600000D100BF1846C1F3421401F01F0601271A
:1040700007FA06F5012C01D10C3004E0022C01D125
:10408000103000E014301AB107682F43076002E0D7
:104090000768AF430760F0BD1AB1838A0B43838280
:1040A00002E0838A8B4383827047028A4FF6F07363
:1040B0001A400282028A0A430282704782894FF2C2
:1040C000FF731A40828182890A438281704721B13D
:1040D000828942F00202828104E082894FF6FD73F8
:1040E0001A4082817047028A4FF6DF731A400282BB
:1040F000028A0A430282704721B1028A42F4804256
:10410000028204E0028A4BF6FF731A400282704773
:10411000C1F308028280704701468888C0F3080016
:104120007047818941F0010181817047028BD2B2D1
:104130000283028B42EA012202837047028B02F45F
:104140007F420283028B0A430283704721B1828A35
:1041500042F02002828204E0828A4FF6DF731A4026
:104160008282704721B1828A42F01002828204E08A
:10417000828A4FF6EF731A408282704721B1828A99
:1041800042F00802828204E0828A4FF6F7731A40F6
:104190008282704721B1828942F40042828103E029
:1041A0008289C2F30E028281704721B1828A42F471
:1041B0000062828204E0828A4FF2FF731A40828298
:1041C0007047828A4FF6FB731A408282828A0A43C2
:1041D0008282704721B1828A42F00202828204E028
:1041E000828A4FF6FD731A40828270470246002091
:1041F000B1F5007F00D100BF13880B400BB1012047
:1042000000E00020704701F40072B2F5007F00D199
:1042100000BFCA430280704770B5024600240023E5
:104220000025002040F66A16B14200D100BFC1F35C
:10423000421501F01F03012606FA03F3012D02D1F6
:104240009689334006E0022D02D1168A334001E000
:10425000968A33400C12012606FA04F4168834407C
:1042600013B10CB1012000E0002070BD10B5002298
:10427000002340F66A14A14200D100BF0A120124B3
:104280009440A3B2DC43048010BD0000003801401C
:104290000044004000480040004C004000500040F6
:1042A000002044490860091D0860091D0860091DB7
:1042B000086041483F4914310860704700213D497A
:1042C0008279002A3AD00A46126803689A430B465C
:1042D0001A600A1D126803689A430B1D1A6002795E
:1042E00011440A6803681A430A60324A08321268A5
:1042F00003689A432F4B08331A601A1D126803682B
:104300009A432C4B0C331A604279102A0ED11A1F93
:10431000126803681A43274B08331A601A1D126883
:1043200003681A43234B0C331A600DE0214942798C
:1043300011440A6803681A430A6005E002791144CF
:104340000A6803689A430A6070470021016001719E
:104350000C214171002181717047164910310968A3
:104360000143144A10321160704701460020114A7F
:10437000143212680A400AB1012000E000207047A0
:104380000C49143108607047014600200022094B97
:104390001B6803EA0102074B14331B680B4013B17F
:1043A0000AB1012000E00020704702491431086082
:1043B0007047000000040140FFFF0F00704700003D
:1043C0000FB4044910B503AA029800F04BFA10BCD0
:1043D0005DF814FB1C0000202DE9F0410E46044658
:1043E000002020622046E168884730B3252805D0A8
:1043F000D4E901219047206A401CF2E7E168204699
:1044000000278847050018D0A5F14100192802D8D7
:1044100020354FF400673246294620462760FBF7D7
:10442000C1FE40B1012804D0F61D26F0070608366B
:10443000D8E7361DD6E72846DAE7206ABDE8F081DE
:10444000704770477047704770472DE9FF4F0C4623
:104450001E464FF0FF378BB0D2E90001DDF86080D7
:104460000A908A46C1F30A5505B93D46002108461F
:104470004FF00000BAF1000F00F4400005DA00EB45
:1044800080004FF4400101EA50004FEA9059B9F121
:10449000010F00DDB9460A9850EA4A000ED044F6F2
:1044A0001050A5F2FF3545432F14B8F1000F1ED070
:1044B0007542291E1EDDC9F100021CE0B8F1010F92
:1044C0004FF0000001D0302103E0F24305E0215419
:1044D000401CB042FBDB30460022002121540B99E6
:1044E000C1F80880C1E900200FB0BDE8F08FBD1B06
:1044F0006D1CDEE74A4600DA694206A800F066FA5B
:1045000006AB93E8070003AB83E8070050460A991F
:1045100000F040FB8DE80700A0F500501F38009028
:104520000398002D09DD42F21F014A46084403A901
:104530000390684600F09FFD08E0A0F500504A4651
:104540001F3803A90390684600F0A9FD8DE8070015
:104550000004000C03D04FF0FF30410800E010468B
:10456000B8F1000F03D00022009215461EE0751E20
:1045700005D400F08DF9303262556D1EF9D5B34681
:104580000122084302D000227F1C04E0207830285A
:1045900001D100227F1E002A099786D01DE0112D2F
:1045A00007DA00F075F9303262556D1C50EA0102ED
:1045B000F5D1084302D00098C8B10EE00021681E72
:1045C00005E0235C625C63542254401E491C814216
:1045D000F7DBAB46A81B401E0990002004F80B0037
:1045E0000B98099AC0F80880C0E9002B7CE71126D7
:1045F0004FF0000859E72DE9F04F88460446D21DD8
:1046000022F0070191B0D1E90001CDE90A0100F0E3
:104610007CFE02460B98C00F01D02D2007E02068D9
:10462000810701D52B2002E0202101EAC000032AE6
:10463000099001D0072A05DB03464146204600F0D9
:1046400085F90BE12078800601D5E06900E00620BD
:10465000B8F1650F814606D0B8F1660F18D0B8F1F1
:10466000670F70D131E00020B9F1110F009001DB2C
:10467000112301E009F101030AAA01A90CA8FFF71F
:10468000E4FEDDE90C70002609F10105834647E0F0
:1046900001204B4600904FF000470AAA01A90CA840
:1046A000FFF7D3FEDDE90DB00C995D46002610B989
:1046B00009F101000D18B9EB050003D4C0F1FF3674
:1046C00009F10105A5EB09002BE0B9F1010F01DAB1
:1046D0004FF001090020B9F1110F0090484601DDAB
:1046E000112300E003460AAA01A90CA8FFF7ADFEBA
:1046F000DDE90C704D4600268346207800070AD479
:10470000AB4500DA5D4601A8012D04DD411911F821
:10471000011C302907D04F4502DA17F1040F04DAE3
:10472000012082460FE06D1EEEE7002F02DCED1B3C
:104730003E4403E0781CA84200DD7D1CB81B00F15C
:10474000010A4FF000472078000703D4AA4501DB97
:104750004FF0FF3A0021B7F1004F0DF143088DF8FB
:10476000431024D002202B23002F01DA7F422D2377
:104770000A21021EA0F1010000DC5FB197FBF1FCF1
:1047800097FBF1F201FB1C7C17460CF1300C08F88A
:1047900001CDEEE7A8F1010003702188090501D5DC
:1047A000452100E06521A0F1010800F8011C0998ED
:1047B0000FA9A1EB0807FF1D00B10120411901EB72
:1047C000EA70A1693844081A401EA0612078C0062A
:1047D00002D42046AFF30080099828B1D4E9012122
:1047E0009047206A401C20622078C00622D52046CF
:1047F000AFF300801EE0002E04DBB34502DD01A80C
:10480000805D00E03020D4E901219047206A401CFF
:104810002062761CAAF101005FEA000A0AD100F0CA
:1048200033F8C0680168405CD4E901219047206AF0
:10483000401C2062281EA5F10105DCDC07E0D4E95C
:10484000012118F8010B9047206A401C2062381E95
:10485000A7F10107F3DC2046AFF30080032011B07D
:1048600043E60000074B70B50D467B4400F05BF853
:104870000446284600F018F910B14FF0FF3070BD23
:10488000204670BD21BEFFFF004870475C0100203C
:1048900030B5B0F10A024FEA900E71F100034EEA12
:1048A000817EB0EB0E0061EB91014FEA101E4EEAE3
:1048B000017E10EB0E0041EB11114FEA102E4EEA73
:1048C000016E10EB0E0041EB11214FEA104E4EEA43
:1048D000014E10EB0E0041EB1141401841F1000177
:1048E0004FEAD00040EA41704FEAD10110EB800559
:1048F0004FEA810444EA907444EB01046D1944EBDF
:104900000404521BA3414FF0000348BF0A3200D5F4
:1049100030BD401C41F1000130BD000001694A1C5E
:1049200002610878704700B58FB0CDE901310021F0
:10493000059105497944CDE9031011466846FFF712
:104940004BFD0FB000BD0000E5FFFFFF2DE9F0417A
:104950001F46044603260168072A01F4006004DBB1
:1049600008B116A505E016A503E008B115A500E0FD
:1049700015A521F010002060A069C01EA0610FB134
:10498000401EA0612046AFF300804FB1D4E9012161
:1049900038469047206A401C2062C01C206206E016
:1049A000206AFAE7D4E9012115F8010B9047761E39
:1049B000F8D22046AFF30080BDE8F0814E414E00B2
:1049C0006E616E00494E4600696E66002DE9F04743
:1049D000814616468AB0334878440DC88DE80D00EC
:1049E00030487844801C03AC0DC884E80D0041F6C3
:1049F0009B300844372190FBF1F290FBF1F5A5F1D3
:104A0000800501FB12041B3C02D56442012000E03A
:104A10000020DFF890A080460027FA44AAF1BE0AE1
:104A20000DE0E00709D03246684607EB47010AEB84
:104A3000810100F034FB8DE8070064107F1C002C1E
:104A4000EFD1184F7F44AC3F18E0E80714D007EBD4
:104A500004100DF1180A90E80E008AE80E00C068F4
:104A6000F04201D198190890324606A903A800F037
:104A700016FB03AB83E807006D10641C002DE4D126
:104A800032466946B8F1000F03A802D000F0F3FAED
:104A900001E000F004FBC9E90001C9F808200AB0F0
:104AA000BDE8F087F8130000007B00F0800070473D
:104AB000004870473C0100207546FFF7F9FFAE46FD
:104AC00005006946534620F00700854618B020B51A
:104AD000FDF7D4FEBDE820404FF000064FF0000780
:104AE0004FF000084FF0000B21F00701AC46ACE896
:104AF000C009ACE8C009ACE8C009ACE8C0098D4603
:104B0000704710B50446AFF300802046BDE8104062
:104B1000FBF762BB4FF0013C50F8042B51F8043B0B
:104B20009A4221D1A2EB0C03934313EACC1317D181
:104B300050F8042B51F8043B9A4215D1A2EB0C0318
:104B4000934313EACC130BD150F8042B51F8043BD8
:104B50009A4209D1A2EB0C03934313EACC13DBD0A6
:104B60004FF00000704700BFD01A01BAB1FA81F1CE
:104B700001F0180122FA01F0CB40C1F12001DBB2B3
:104B8000C0B2C01A2CFA01F3D11A914311EAC31131
:104B9000E6D170475FEA400C08BF91F0000F4FEA82
:104BA0008C234FEAC12243EA51514FEA1C5018BFEF
:104BB00000F5F0404FEA300018BF41F000415FEAD5
:104BC0006C5C00F02980BCF1FF3F08BF40F08040E2
:104BD0007047130C06BF12044FF0100C4FF0000C7E
:104BE000130E04BF12020CF1080C130F04BF1201C4
:104BF0000CF1040C930F04BF92000CF1020CD30FC4
:104C000004BF52000CF1010C11464FF00002A0F15C
:104C10001F00A0EB0C00704711F0004F08BF704759
:104C200031F000413FF4D5AF0B0C06BF09044FF043
:104C3000100C4FF0000C0B0E04BF09020CF1080C15
:104C40000B0F04BF09010CF1040C8B0F04BF89008A
:104C50000CF1020CCB0F04BF49000CF1010CCCF19C
:104C60002003A0EB0C0022FA03F302FA0CF241EA53
:104C7000030100F10100704720F07F4C80EA03003F
:104C800023F07F47ACEB070303F57C5300F00040B3
:104C900003F1FF032DE980494FEA154B09B44FEAB0
:104CA000144325EA0B4E24EA03480FF2042606EBD0
:104CB000132749083E785FEA320203FB0667C7F50F
:104CC000000707FB06F64FEA54374FEAD64606F1CF
:104CD000020607FB066CCCF1005C4FEA1C472CEA8D
:104CE000074C07FB06F40CFB06F504EB15464FEAF0
:104CF000961634BF00204FF000404FEAD13706FB34
:104D000007FC4FEA1C4C0CFB0BF7D21B03FB0CF708
:104D100061EB07010CFB0EF7B0EB074072EB17429B
:104D20000CFB08F734BFA2EB0742B2EB074261EB82
:104D300017414FEA0C444FEA910706FB07FC4FEA84
:104D40001C4C0CFB0BF7B0EBC74072EB573203FB6C
:104D50000CF734BFA2EBC742B2EBC74261EB57314D
:104D60000CFB0EF7B0EBC70072EB57720CFB08F7A9
:104D700034BFA2EBC702B2EBC70261EB5771039FCE
:104D80004FEA816141EA921104EBCC044FEAD1373A
:104D90004FEA826206FB07FC42EA90124FEA80600B
:104DA0004FEA1C4C0CFB0BF7D21B03FB0CF761EB1F
:104DB00007010CFB0EF7B0EB074072EB17420CFB40
:104DC00008F734BFA2EB0742B2EB074261EB174191
:104DD0004FEA8C554FEA910704EB9C2406FB07FC35
:104DE0004FEA1C4C0CFB0BF7B0EBC74072EB573291
:104DF00003FB0CF734BFA2EBC742B2EBC74261EB37
:104E000057310CFB0EF7B0EBC70072EB57720CFB7F
:104E100008F734BFA2EBC702B2EBC70261EB5771D0
:104E200015EB4C254FEA816141EA92114FEA82620B
:104E30004FEAD13742EA901206FB07FC44F1000426
:104E40004FEA80604FEA1C4C0CFB0BF7D21B03FBB4
:104E50000CF761EB07010CFB0EF7B0EB074072EBB0
:104E600017420CFB08F734BFA2EB0742B2EB074234
:104E700061EB174115EB1C154FEA813141EA924174
:104E80004FEA823242EA90424FEA80304FEA0C7693
:104E900044F1000448EA03434EEA0B484FF0000E89
:104EA000B2EB080C71EB030724BF624639464EEBA8
:104EB0000E0E4FF0000B0018524149414BEB0B0B0B
:104EC000B2EB080C71EB03077BF1000B24BF6246C9
:104ED00039464EEB0E0E4FF0000B0018524149417F
:104EE0004BEB0B0BB2EB080C71EB03077BF1000BE8
:104EF00024BF624639464EEB0E0E51EA020718BF38
:104F000046F0010616EB0E7655F1000254F1000151
:104F100003D5BDE88901BDE80088BDE88901BDE889
:104F20000048B619524141EB0101A3F1010370475A
:104F300080807F7E7D7C7B7A7978777676757473D6
:104F4000727171706F6E6E6D6C6C6B6A6A69686895
:104F5000676666656464636362616160605F5F5E2B
:104F60005E5D5D5C5C5B5B5A5A59595858575756A1
:104F70005655555554545353525252515150505006
:104F80004F4F4F4E4E4D4D4D4C4C4C4B4B4B4A4A58
:104F90004A4949494848484747474746464645459C
:104FA00045444444444343434342424242414141D5
:104FB000002B26D4770021D01CB54FEA370703B465
:104FC0004FF010004FF010014FF000000FBCBDE893
:104FD00010400BF1010BBBF1010F08BF5FEA17078F
:104FE00022BF12F1010211F101014FF0004143F122
:104FF000000300F0004043EA00007047F9D357086F
:10500000DAE746EA064613F1400F4FEA16461FDD7F
:1050100013F1200FDFBF16430A46002120335B4205
:10502000C8D0C3F1200746EA064602FA07F74FEA5E
:10503000164646EA0706C3F1200722FA03F201FAF0
:1050400007F721FA03F14FF0000342EA0702B1E744
:1050500046EA020646EA06464FEA164646EA0106D0
:10506000BCBF46EA0646360C4FF000034FF0000284
:105070004FF000019EE72DE9C048934630B491E817
:10508000380007C831EA400C48BF34EA430C03D566
:10509000FFF7F2FDFFF78CFFF0BCBDE800882DE9BB
:1050A000C048934630B491E8380007C810F0804FEC
:1050B00008BF13F0804F03D100F005F8FFF778FF29
:1050C000F0BCBDE8008820F07F4780EA030023F0B1
:1050D0007F4C07EB0C03A3F57C5300F00040A3F1D9
:1050E000FE0392F0000F00F0B38095F0000F00F087
:1050F00077802DE901494FEA11404FEA144621EA31
:10510000004800FB06FC24EA064708FB06F607FBFE
:1051100008F800FB07F718EB06484CEB164C4FEA73
:10512000124B18EB07484FEA15464CEB174022EAA2
:105130000B4E0BFB06FC25EA06470EFB06F607FBAB
:105140000EFE0BFB07F71EEB064E4CEB164C4FF01A
:1051500000061EEB074E4CEB174B18EB0B0840F10B
:10516000000018EB0E0B58EB000840F100008F1AFE
:105170004FF000013CBFC943661B14BFB5EB040CE4
:1051800000213CBFC943F61B4FEA17444EEA8E0E7E
:1051900027EA04454FEA1C4704FB07622CEA074C48
:1051A00005FB07F70CFB05F604FB0CFC16EB0746AA
:1051B00042EB174216EB0C4642EB1C421BEB060679
:1051C00058EB0202414146EA9E0601D5BDE801893D
:1051D000B619524141EB0101A3F10103BDE8018978
:1051E0004FEA14454FEA114724EA054621EA074CE5
:1051F00005FB07F406FB07F70CFB06F105FB0CFCAF
:1052000011EB074144EB17444FEA124711EB0C41F5
:1052100044EB1C4422EA074C05FB07F206FB07F7A8
:105220000CFB06F605FB0CFC16EB074642EB17429F
:1052300016EB0C4642EB1C456A1854F1000148BFBE
:105240007047B619524141EB0101A3F101037047C8
:1052500095F0000F37D04FEA11424FEA144721EA88
:10526000024624EA074C02FB07F106FB07F70CFB9A
:1052700006F402FB0CFC14EB074441EB17414FEA28
:10528000154714EB0C4441EB1C4125EA074C02FB8B
:1052900007F506FB07F70CFB06F602FB0CFC16EB0A
:1052A000074645EB174516EB0C4645EB1C42121919
:1052B00051F1000148BF7047B619524141EB01015D
:1052C000A3F1010370474FEA14454FEA114724EA5E
:1052D000054621EA074C05FB07F106FB07F70CFB27
:1052E00006F24FF0000605FB0CFC12EB074241EB07
:1052F000174112EB0C4251EB1C4148BF704792180A
:1053000041EB0101A3F101037047490050EAC120BC
:1053100018BF04204A0D18BF40F0010040F2FF7290
:10532000B2EB515F08BF40F00200012808BF052022
:105330007047000010B500290AD00878002807D06F
:1053400005487844FFF7E6FB002801D0002010BD97
:105350000248784410BD0000CA0A0000C20A0000DA
:1053600021F00042A2F16052B2F5801F01F000432B
:1053700028BFD2F17F6C0BD95FEA001C43EAC2025E
:1053800042EB507018BF704728BF20F001007047F3
:10539000B2F5801FBCBF184670474FEA410C1CF5A0
:1053A000001F02D2084600F09FBC70B500F06AFAF8
:1053B00000000089FFF7F6BF4FF00040A0F5800025
:1053C0007047000010B591EA030F48BF83F0004317
:1053D00000F1F682841A71EB030C05D2121943EB2B
:1053E0000C03001B61EB0C01DFF824E14FEA1154C0
:1053F000A4EB135C1EEA430F18BF9EEA445F73D010
:1054000023EA0E03DCF1200E21EA045143F4801359
:1054100032D322FA0CFE10EB0E0023FA0CFE41EB05
:105420000E01CCF1200E03FA0EFE10EB0E0051F12E
:105430000001B1F5801FCCF1200E32D201EB0451F6
:1054400012FA0EF2BDE8104058BF7047401C38BF3A
:105450005FEA420218BF7047002814BF20F0010025
:1054600041F100014FEA410313F5001F38BF7047B7
:10547000A1F1C04100F054BA012A43EB0302ACF1A0
:10548000200CDCF11F0E32BF4FF0000E23FA0CF39C
:1054900010EB030041EB0451B4EB115FD0D0A1EB52
:1054A000045101F5801149085FEA300001EB045115
:1054B0000ED350F1000038BF12FA0EFE08D1BDE83D
:1054C0001040C9E7401C38BF5FEA4202CAD1C3E7B7
:1054D000BDE810404FEA410313F5001F38BF704785
:1054E000A1F1C04100F01CBA9EEA445F08D011EA65
:1054F0005E0FBDE8104004BF01F00041002070477E
:10550000BDE8104070B500F0BDF900BF64FBBE3EC1
:105510000000E0FF491058BFC1F140415B1058BF87
:10552000C3F140438B42EFF3008070472DE9C04147
:1055300030B4DFF8A0C23CEA111418BF3CEA1314DF
:1055400000F0EC8081EA03051CEA111444EAD574EA
:1055500018BF1CEA131500F0C780A4EB05044FF038
:10556000004545EAC12145EAC32341EA505143EAD7
:10557000525304F17F74994204F500344FEAC0207D
:105580004FEAC22208BF904200F09C804FEA1365A8
:105590000FF24016765D4FEA134506FB05F7C7F19B
:1055A000807706FB07F74FEAD737A7FB03687642F9
:1055B000C8F58038A7FB06CE38BFA8F1010807FB65
:1055C00008E64FF0000EA6FB028CE6FB03CEDCF1F2
:1055D000000CCEF1004E38BFAEF1010EA6FB0C5808
:1055E0004FF000074FF00005E6FB0E87A1FB08C651
:1055F000A0FB07CE16EB0E0645F10005E1FB0765A3
:1056000015F1E04E7EBFA4F580345FEA46066D4199
:1056100016F1800745F100054FEA17274FEA0666A5
:1056200047EA0567A6F1DE46B6F1805F4FEA152529
:105630001FD9384624F0010C05EBC471BCF1FE6F94
:1056400001EB0C1102D8F0BCBDE8008124425CBF24
:1056500001F5801E9EEAC47F02D4F0BCBDE8008143
:10566000244238D4F0BCA1F1C041BDE8004100F0B3
:1056700057B94FEAD22242EA43524FEAD323A7FB5B
:1056800002864FEAD02040EA415007FB03661EEA3B
:105690000E0F4FEAD12105FB026658BFA6EB00565C
:1056A000B6EB00564FEA520E4EEAC37E18EB0E0ED2
:1056B00056EB530EBDD518EB02085E417F1C55F129
:1056C0000005B6E74FF480154FF000074FF00006D5
:1056D0004FF00008ADE7F0BC4FF0000001F1C04111
:1056E00001F00041BDE8008111EA0C1F0CEA13151E
:1056F00000D00CE013EA0C1F00F025804FF00000F2
:10570000F0BC81EA030101F00041BDE80081F0BC7A
:10571000BDE8004181EA030100F002B9F0BCBDE838
:10572000004170B500F0AEF8097EFC3E00F007B80D
:1057300081EA03014FF0000001F00041704781EA67
:10574000030100F0EDB8F0BCBDE800414FF00000EF
:1057500021497047FFFDFBF9F7F5F4F2F0EEEDEBB0
:10576000E9E8E6E4E3E1E0DEDDDBDAD8D7D5D4D35F
:10577000D1D0CFCDCCCBCAC8C7C6C5C4C2C1C0BFAB
:10578000BEBDBCBBBAB9B8B7B6B5B4B3B2B1B0AFB1
:10579000AEADACABAAA9A8A8A7A6A5A4A3A3A2A195
:1057A000A09F9F9E9D9C9C9B9A9999989797969550
:1057B00095949393929191908F8F8E8E8D8C8C8BEC
:1057C0008B8A898988888787868585848483838274
:1057D000828181800000FF070000F87F10F0004206
:1057E00048BF4042B0FA80F310FA03F10AD0C3F187
:1057F0001D0303F580634FEA415002EB035202EBB5
:10580000D12170474FF000007047000051EA030CAF
:1058100017D41CF5801F58BFBCF5801F00F106800F
:10582000994218BF704708BF9042704707D711F5DB
:10583000801F58BF13F5801F19D4994270478942C1
:1058400070471CF5801F08D5BCF5801FF7D58B422B
:1058500018BF704708BF824270474FF4001C1CEB12
:10586000410F38BF1CEB430F01D28B42704770B51C
:1058700000F008F8922449004FF000514FF0805397
:10588000FFF748BE0EF1020E2EF0030E5EF8046B19
:10589000364205D4012A43EB030515F5001F12D843
:1058A000012841EB010C1CF5001F0CD80ED14FEA6A
:1058B000D17C15F5001F0CEB4C0C0CF1020C08BF51
:1058C0004CEBD37C04E04FF0080C01E04FEAD37CB2
:1058D0000CEB4C0526FA05F606F00706B6F1040CAB
:1058E00006D20EEB860CBDE870404CF0010C604710
:1058F000DFE80CF0090B02024FF000414FF000000E
:10590000A1F5002170BD19461046012851EB010494
:1059100018BFD4F5001484BF002001F0004170BD11
:105920000808A0F500114FEA3101704753EA010C55
:1059300017D41CF5801F58BFBCF5801F00F10680EE
:105940008B4218BF704708BF8242704707D713F5D4
:10595000801F58BF11F5801F19D48B4270479B429E
:1059600070471CF5801F08D5BCF5801FF7D59942FC
:1059700018BF704708BF904270474FF4001C1CEBE3
:10598000430F38BF1CEB410F01D2994270470FB44F
:105990000CBC03BCFFF76BBF91EA030F10B581F09D
:1059A00000413FF517AD83F0004300F009B8000057
:1059B00010B591EA030F48BF83F000433FF50AADED
:1059C000841A71EB030C07D212198CF0004C43EBD4
:1059D0000C03001B61EB0C01DFF8A4E14FEA11544A
:1059E000A4EB135C1EEA430F18BF9EEA445F00F06D
:1059F000B08023EA6E03524221EA0451C3EB6E03E6
:105A000038BF5B1EDCF1200E25D322FA0CFE10EB12
:105A10000E0043FA0CFE41EB0E01CCF1200E03FA0E
:105A20000EFE10EB0E0051F10001CCF1200E29D436
:105A300012FA0EF201EB0451BDE8104058BF704756
:105A4000401C1CBFB2F1004F704700280CBF491C1E
:105A500020F00100704712EB020E43EB030218BF67
:105A60004FF0010E4EEA4202ACF1200CDCF11E0EAA
:105A700054D943FA0CFE10EB0E0051F1FF31CCF17A
:105A80001E0ED5D50EF1010E12FA0EFE404141EB6D
:105A9000010101EB445C5FEA5C5C10D910EBDE7045
:105AA00001EB045138BFBEF1004FBDE8104018BFF4
:105AB000704700280CBF491C20F00100704730D20D
:105AC0004FEAD42C11F5001124F400641BD0B1FA74
:105AD00081F20B3AA41AA41ED2F12003914030FAAD
